{
  "contractName": "smartContract",
  "abi": [
    {
      "inputs": [],
      "stateMutability": "nonpayable",
      "type": "constructor"
    },
    {
      "inputs": [],
      "name": "manager",
      "outputs": [
        {
          "internalType": "address payable",
          "name": "",
          "type": "address"
        }
      ],
      "stateMutability": "view",
      "type": "function"
    },
    {
      "inputs": [
        {
          "internalType": "uint256",
          "name": "",
          "type": "uint256"
        }
      ],
      "name": "products",
      "outputs": [
        {
          "internalType": "string",
          "name": "productName",
          "type": "string"
        },
        {
          "internalType": "uint256",
          "name": "productPrice",
          "type": "uint256"
        },
        {
          "internalType": "string",
          "name": "description",
          "type": "string"
        },
        {
          "internalType": "address payable",
          "name": "seller",
          "type": "address"
        },
        {
          "internalType": "address",
          "name": "buyer",
          "type": "address"
        },
        {
          "internalType": "uint256",
          "name": "productId",
          "type": "uint256"
        },
        {
          "internalType": "bool",
          "name": "delivered",
          "type": "bool"
        }
      ],
      "stateMutability": "view",
      "type": "function"
    },
    {
      "stateMutability": "payable",
      "type": "receive"
    },
    {
      "inputs": [
        {
          "internalType": "string",
          "name": "_productName",
          "type": "string"
        },
        {
          "internalType": "uint256",
          "name": "_productPrice",
          "type": "uint256"
        },
        {
          "internalType": "string",
          "name": "_description",
          "type": "string"
        }
      ],
      "name": "registerProduct",
      "outputs": [],
      "stateMutability": "nonpayable",
      "type": "function"
    },
    {
      "inputs": [],
      "name": "getProduct",
      "outputs": [
        {
          "components": [
            {
              "internalType": "string",
              "name": "productName",
              "type": "string"
            },
            {
              "internalType": "uint256",
              "name": "productPrice",
              "type": "uint256"
            },
            {
              "internalType": "string",
              "name": "description",
              "type": "string"
            },
            {
              "internalType": "address payable",
              "name": "seller",
              "type": "address"
            },
            {
              "internalType": "address",
              "name": "buyer",
              "type": "address"
            },
            {
              "internalType": "uint256",
              "name": "productId",
              "type": "uint256"
            },
            {
              "internalType": "bool",
              "name": "delivered",
              "type": "bool"
            }
          ],
          "internalType": "struct Product[]",
          "name": "",
          "type": "tuple[]"
        }
      ],
      "stateMutability": "view",
      "type": "function"
    },
    {
      "inputs": [
        {
          "internalType": "uint256",
          "name": "_productId",
          "type": "uint256"
        }
      ],
      "name": "buy",
      "outputs": [],
      "stateMutability": "payable",
      "type": "function"
    },
    {
      "inputs": [],
      "name": "contractBal",
      "outputs": [
        {
          "internalType": "uint256",
          "name": "",
          "type": "uint256"
        }
      ],
      "stateMutability": "view",
      "type": "function"
    },
    {
      "inputs": [
        {
          "internalType": "uint256",
          "name": "_productId",
          "type": "uint256"
        }
      ],
      "name": "deliver",
      "outputs": [],
      "stateMutability": "payable",
      "type": "function"
    },
    {
      "inputs": [],
      "name": "destroy",
      "outputs": [],
      "stateMutability": "nonpayable",
      "type": "function"
    }
  ],
  "bytecode": "0x60806040526000600160146101000a81548160ff021916908315150217905550600160025534801561003057600080fd5b5033600160006101000a81548173ffffffffffffffffffffffffffffffffffffffff021916908373ffffffffffffffffffffffffffffffffffffffff160217905550611925806100816000396000f3fe60806040526004361061007f5760003560e01c806383197ef01161004e57806383197ef014610187578063c9cd30a01461019e578063d96a094a146101c9578063f7aa8a35146101e5576100cd565b80633bd5d173146100d2578063481c6a75146100ee5780634ba20050146101195780637acc0b2014610144576100cd565b366100cd573373ffffffffffffffffffffffffffffffffffffffff166108fc349081150290604051600060405180830381858888f193505050501580156100ca573d6000803e3d6000fd5b50005b600080fd5b6100ec60048036038101906100e79190610ed3565b61020e565b005b3480156100fa57600080fd5b506101036103fd565b6040516101109190610f41565b60405180910390f35b34801561012557600080fd5b5061012e610423565b60405161013b91906111b4565b60405180910390f35b34801561015057600080fd5b5061016b60048036038101906101669190610ed3565b61069b565b60405161017e979695949392919061124d565b60405180910390f35b34801561019357600080fd5b5061019c61084a565b005b3480156101aa57600080fd5b506101b3610979565b6040516101c091906112ca565b60405180910390f35b6101e360048036038101906101de9190610ed3565b61099b565b005b3480156101f157600080fd5b5061020c6004803603810190610207919061141a565b610b5b565b005b600160149054906101000a900460ff161561022857600080fd5b600060018261023791906114d4565b8154811061024857610247611508565b5b906000526020600020906007020160040160009054906101000a900473ffffffffffffffffffffffffffffffffffffffff1673ffffffffffffffffffffffffffffffffffffffff163373ffffffffffffffffffffffffffffffffffffffff16146102e7576040517f08c379a00000000000000000000000000000000000000000000000000000000081526004016102de90611583565b60405180910390fd5b60006001826102f691906114d4565b8154811061030757610306611508565b5b906000526020600020906007020160030160009054906101000a900473ffffffffffffffffffffffffffffffffffffffff1673ffffffffffffffffffffffffffffffffffffffff166108fc600060018461036191906114d4565b8154811061037257610371611508565b5b9060005260206000209060070201600101549081150290604051600060405180830381858888f193505050501580156103af573d6000803e3d6000fd5b50600160006001836103c191906114d4565b815481106103d2576103d1611508565b5b906000526020600020906007020160060160006101000a81548160ff02191690831515021790555050565b600160009054906101000a900473ffffffffffffffffffffffffffffffffffffffff1681565b6060600160149054906101000a900460ff161561043f57600080fd5b6000805480602002602001604051908101604052809291908181526020016000905b8282101561069257838290600052602060002090600702016040518060e0016040529081600082018054610494906115d2565b80601f01602080910402602001604051908101604052809291908181526020018280546104c0906115d2565b801561050d5780601f106104e25761010080835404028352916020019161050d565b820191906000526020600020905b8154815290600101906020018083116104f057829003601f168201915b5050505050815260200160018201548152602001600282018054610530906115d2565b80601f016020809104026020016040519081016040528092919081815260200182805461055c906115d2565b80156105a95780601f1061057e576101008083540402835291602001916105a9565b820191906000526020600020905b81548152906001019060200180831161058c57829003601f168201915b505050505081526020016003820160009054906101000a900473ffffffffffffffffffffffffffffffffffffffff1673ffffffffffffffffffffffffffffffffffffffff1673ffffffffffffffffffffffffffffffffffffffff1681526020016004820160009054906101000a900473ffffffffffffffffffffffffffffffffffffffff1673ffffffffffffffffffffffffffffffffffffffff1673ffffffffffffffffffffffffffffffffffffffff168152602001600582015481526020016006820160009054906101000a900460ff16151515158152505081526020019060010190610461565b50505050905090565b600081815481106106ab57600080fd5b90600052602060002090600702016000915090508060000180546106ce906115d2565b80601f01602080910402602001604051908101604052809291908181526020018280546106fa906115d2565b80156107475780601f1061071c57610100808354040283529160200191610747565b820191906000526020600020905b81548152906001019060200180831161072a57829003601f168201915b505050505090806001015490806002018054610762906115d2565b80601f016020809104026020016040519081016040528092919081815260200182805461078e906115d2565b80156107db5780601f106107b0576101008083540402835291602001916107db565b820191906000526020600020905b8154815290600101906020018083116107be57829003601f168201915b5050505050908060030160009054906101000a900473ffffffffffffffffffffffffffffffffffffffff16908060040160009054906101000a900473ffffffffffffffffffffffffffffffffffffffff16908060050154908060060160009054906101000a900460ff16905087565b600160149054906101000a900460ff161561086457600080fd5b600160009054906101000a900473ffffffffffffffffffffffffffffffffffffffff1673ffffffffffffffffffffffffffffffffffffffff163373ffffffffffffffffffffffffffffffffffffffff16146108f4576040517f08c379a00000000000000000000000000000000000000000000000000000000081526004016108eb90611676565b60405180910390fd5b600160009054906101000a900473ffffffffffffffffffffffffffffffffffffffff1673ffffffffffffffffffffffffffffffffffffffff166108fc479081150290604051600060405180830381858888f1935050505015801561095c573d6000803e3d6000fd5b5060018060146101000a81548160ff021916908315150217905550565b6000600160149054906101000a900460ff161561099557600080fd5b47905090565b600160149054906101000a900460ff16156109b557600080fd5b60006001826109c491906114d4565b815481106109d5576109d4611508565b5b9060005260206000209060070201600101543414610a28576040517f08c379a0000000000000000000000000000000000000000000000000000000008152600401610a1f90611708565b60405180910390fd5b6000600182610a3791906114d4565b81548110610a4857610a47611508565b5b906000526020600020906007020160030160009054906101000a900473ffffffffffffffffffffffffffffffffffffffff1673ffffffffffffffffffffffffffffffffffffffff163373ffffffffffffffffffffffffffffffffffffffff161415610ae8576040517f08c379a0000000000000000000000000000000000000000000000000000000008152600401610adf9061179a565b60405180910390fd5b336000600183610af891906114d4565b81548110610b0957610b08611508565b5b906000526020600020906007020160040160006101000a81548173ffffffffffffffffffffffffffffffffffffffff021916908373ffffffffffffffffffffffffffffffffffffffff16021790555050565b600160149054906101000a900460ff1615610b7557600080fd5b60008211610bb8576040517f08c379a0000000000000000000000000000000000000000000000000000000008152600401610baf9061182c565b60405180910390fd5b610bc0610d7b565b838160000181905250670de0b6b3a764000083610bdd919061184c565b81602001818152505081816040018190525033816060019073ffffffffffffffffffffffffffffffffffffffff16908173ffffffffffffffffffffffffffffffffffffffff16815250506002548160a001818152505060026000815480929190610c46906118a6565b919050555060008190806001815401808255809150506001900390600052602060002090600702016000909190919091506000820151816000019080519060200190610c93929190610de6565b50602082015181600101556040820151816002019080519060200190610cba929190610de6565b5060608201518160030160006101000a81548173ffffffffffffffffffffffffffffffffffffffff021916908373ffffffffffffffffffffffffffffffffffffffff16021790555060808201518160040160006101000a81548173ffffffffffffffffffffffffffffffffffffffff021916908373ffffffffffffffffffffffffffffffffffffffff16021790555060a0820151816005015560c08201518160060160006101000a81548160ff021916908315150217905550505050505050565b6040518060e00160405280606081526020016000815260200160608152602001600073ffffffffffffffffffffffffffffffffffffffff168152602001600073ffffffffffffffffffffffffffffffffffffffff168152602001600081526020016000151581525090565b828054610df2906115d2565b90600052602060002090601f016020900481019282610e145760008555610e5b565b82601f10610e2d57805160ff1916838001178555610e5b565b82800160010185558215610e5b579182015b82811115610e5a578251825591602001919060010190610e3f565b5b509050610e689190610e6c565b5090565b5b80821115610e85576000816000905550600101610e6d565b5090565b6000604051905090565b600080fd5b600080fd5b6000819050919050565b610eb081610e9d565b8114610ebb57600080fd5b50565b600081359050610ecd81610ea7565b92915050565b600060208284031215610ee957610ee8610e93565b5b6000610ef784828501610ebe565b91505092915050565b600073ffffffffffffffffffffffffffffffffffffffff82169050919050565b6000610f2b82610f00565b9050919050565b610f3b81610f20565b82525050565b6000602082019050610f566000830184610f32565b92915050565b600081519050919050565b600082825260208201905092915050565b6000819050602082019050919050565b600081519050919050565b600082825260208201905092915050565b60005b83811015610fc2578082015181840152602081019050610fa7565b83811115610fd1576000848401525b50505050565b6000601f19601f8301169050919050565b6000610ff382610f88565b610ffd8185610f93565b935061100d818560208601610fa4565b61101681610fd7565b840191505092915050565b61102a81610e9d565b82525050565b61103981610f20565b82525050565b600061104a82610f00565b9050919050565b61105a8161103f565b82525050565b60008115159050919050565b61107581611060565b82525050565b600060e08301600083015184820360008601526110988282610fe8565b91505060208301516110ad6020860182611021565b50604083015184820360408601526110c58282610fe8565b91505060608301516110da6060860182611030565b5060808301516110ed6080860182611051565b5060a083015161110060a0860182611021565b5060c083015161111360c086018261106c565b508091505092915050565b600061112a838361107b565b905092915050565b6000602082019050919050565b600061114a82610f5c565b6111548185610f67565b93508360208202850161116685610f78565b8060005b858110156111a25784840389528151611183858261111e565b945061118e83611132565b925060208a0199505060018101905061116a565b50829750879550505050505092915050565b600060208201905081810360008301526111ce818461113f565b905092915050565b600082825260208201905092915050565b60006111f282610f88565b6111fc81856111d6565b935061120c818560208601610fa4565b61121581610fd7565b840191505092915050565b61122981610e9d565b82525050565b6112388161103f565b82525050565b61124781611060565b82525050565b600060e0820190508181036000830152611267818a6111e7565b90506112766020830189611220565b818103604083015261128881886111e7565b90506112976060830187610f32565b6112a4608083018661122f565b6112b160a0830185611220565b6112be60c083018461123e565b98975050505050505050565b60006020820190506112df6000830184611220565b92915050565b600080fd5b600080fd5b7f4e487b7100000000000000000000000000000000000000000000000000000000600052604160045260246000fd5b61132782610fd7565b810181811067ffffffffffffffff82111715611346576113456112ef565b5b80604052505050565b6000611359610e89565b9050611365828261131e565b919050565b600067ffffffffffffffff821115611385576113846112ef565b5b61138e82610fd7565b9050602081019050919050565b82818337600083830152505050565b60006113bd6113b88461136a565b61134f565b9050828152602081018484840111156113d9576113d86112ea565b5b6113e484828561139b565b509392505050565b600082601f830112611401576114006112e5565b5b81356114118482602086016113aa565b91505092915050565b60008060006060848603121561143357611432610e93565b5b600084013567ffffffffffffffff81111561145157611450610e98565b5b61145d868287016113ec565b935050602061146e86828701610ebe565b925050604084013567ffffffffffffffff81111561148f5761148e610e98565b5b61149b868287016113ec565b9150509250925092565b7f4e487b7100000000000000000000000000000000000000000000000000000000600052601160045260246000fd5b60006114df82610e9d565b91506114ea83610e9d565b9250828210156114fd576114fc6114a5565b5b828203905092915050565b7f4e487b7100000000000000000000000000000000000000000000000000000000600052603260045260246000fd5b7f4f6e6c792062757965722063616e20636f6e6669726d00000000000000000000600082015250565b600061156d6016836111d6565b915061157882611537565b602082019050919050565b6000602082019050818103600083015261159c81611560565b9050919050565b7f4e487b7100000000000000000000000000000000000000000000000000000000600052602260045260246000fd5b600060028204905060018216806115ea57607f821691505b602082108114156115fe576115fd6115a3565b5b50919050565b7f4f6e6c7920746865206d616e616765722063616e2072756e207468697320636f60008201527f6d6d616e64000000000000000000000000000000000000000000000000000000602082015250565b60006116606025836111d6565b915061166b82611604565b604082019050919050565b6000602082019050818103600083015261168f81611653565b9050919050565b7f506c656173652073656e6420746865206578616374207072696365206f66207460008201527f68652070726f6475637400000000000000000000000000000000000000000000602082015250565b60006116f2602a836111d6565b91506116fd82611696565b604082019050919050565b60006020820190508181036000830152611721816116e5565b9050919050565b7f5468652073656c6c65722063616e6e6f7420707572636861736520746865207060008201527f726f647563740000000000000000000000000000000000000000000000000000602082015250565b60006117846026836111d6565b915061178f82611728565b604082019050919050565b600060208201905081810360008301526117b381611777565b9050919050565b7f546865207072696365206f66207468652070726f647563742073686f756c642060008201527f62652067726561746572207468616e207a65726f000000000000000000000000602082015250565b60006118166034836111d6565b9150611821826117ba565b604082019050919050565b6000602082019050818103600083015261184581611809565b9050919050565b600061185782610e9d565b915061186283610e9d565b9250817fffffffffffffffffffffffffffffffffffffffffffffffffffffffffffffffff048311821515161561189b5761189a6114a5565b5b828202905092915050565b60006118b182610e9d565b91507fffffffffffffffffffffffffffffffffffffffffffffffffffffffffffffffff8214156118e4576118e36114a5565b5b60018201905091905056fea26469706673582212205def1a2c350fd1ec2baabd57e815ad888f0e1722740158836f59ff3cbb6ad6c464736f6c634300080c0033",
  "immutableReferences": {},
  "source": "//SPDX-License-Identifier: UNLICENSED\r\n\r\npragma solidity >=0.5.0 < 0.9.0;\r\n\r\nstruct Product{\r\n    string productName;\r\n    uint productPrice;\r\n    string description;\r\n    address payable seller;\r\n    address buyer;\r\n    uint productId;\r\n    bool delivered;\r\n}\r\ncontract smartContract{\r\n    Product[] public products;\r\n    address payable public manager;\r\n    bool destroyed = false;\r\n    uint counter = 1;\r\n\r\n    constructor(){\r\n        manager = payable(msg.sender);\r\n    }\r\n    modifier checkDestroyed{\r\n        require(!destroyed);\r\n        _;\r\n    }\r\n\r\n    function registerProduct(string memory _productName, uint _productPrice, string memory _description) public checkDestroyed{\r\n        require(_productPrice > 0, \"The price of the product should be greater than zero\");\r\n        Product memory product;\r\n        product.productName=_productName;\r\n        product.productPrice=_productPrice * 10 ** 18;\r\n        product.description=_description;\r\n        product.seller=payable(msg.sender);\r\n        product.productId=counter;\r\n        counter++;\r\n        products.push(product);\r\n    }\r\n    function getProduct() public view checkDestroyed returns(Product[] memory){\r\n        return products;\r\n    }\r\n    function buy(uint _productId) public payable checkDestroyed{\r\n        require(msg.value == products[_productId - 1].productPrice,  \"Please send the exact price of the product\");\r\n        require(msg.sender != products[_productId - 1].seller, \"The seller cannot purchase the product\");\r\n        products[_productId - 1].buyer = msg.sender;\r\n    }\r\n    function contractBal() public view checkDestroyed returns(uint){\r\n        return address(this).balance;\r\n    }\r\n    function deliver(uint _productId) public payable checkDestroyed{\r\n        require(msg.sender == products[_productId - 1].buyer, \"Only buyer can confirm\");\r\n        products[_productId - 1].seller.transfer(products[_productId - 1].productPrice);\r\n        products[_productId - 1].delivered=true;\r\n    }\r\n    function destroy() public checkDestroyed{\r\n        require(msg.sender == manager, \"Only the manager can run this command\");\r\n        manager.transfer(address(this).balance);\r\n        destroyed=true;\r\n    }\r\n    receive() payable external{\r\n        payable(msg.sender).transfer(msg.value);\r\n    }\r\n}\r\n",
  "sourcePath": "C:\\krishna\\projects\\smart-contract-testing\\contracts\\SmartContract.sol",
  "compiler": {
    "name": "solc",
    "version": "0.8.12+commit.f00d7308.Emscripten.clang"
  },
  "schemaVersion": "3.4.6",
  "updatedAt": "2022-03-26T17:51:43.030Z",
  "devdoc": {
    "kind": "dev",
    "methods": {},
    "version": 1
  },
  "userdoc": {
    "kind": "user",
    "methods": {},
    "version": 1
  }
}